{
  "contractName": "Novel",
  "abi": [
    {
      "inputs": [
        {
          "internalType": "string",
          "name": "_novelName",
          "type": "string"
        },
        {
          "internalType": "address",
          "name": "_writer",
          "type": "address"
        }
      ],
      "stateMutability": "nonpayable",
      "type": "constructor"
    },
    {
      "inputs": [],
      "name": "novelName",
      "outputs": [
        {
          "internalType": "string",
          "name": "",
          "type": "string"
        }
      ],
      "stateMutability": "view",
      "type": "function"
    },
    {
      "inputs": [
        {
          "internalType": "string",
          "name": "CID",
          "type": "string"
        }
      ],
      "name": "uploadNewChapter",
      "outputs": [
        {
          "internalType": "uint256",
          "name": "",
          "type": "uint256"
        }
      ],
      "stateMutability": "nonpayable",
      "type": "function"
    },
    {
      "inputs": [
        {
          "internalType": "uint256",
          "name": "count",
          "type": "uint256"
        }
      ],
      "name": "setFreeChapter",
      "outputs": [
        {
          "internalType": "bool",
          "name": "",
          "type": "bool"
        }
      ],
      "stateMutability": "nonpayable",
      "type": "function"
    },
    {
      "inputs": [
        {
          "internalType": "uint256",
          "name": "fee",
          "type": "uint256"
        }
      ],
      "name": "setFee",
      "outputs": [
        {
          "internalType": "bool",
          "name": "",
          "type": "bool"
        }
      ],
      "stateMutability": "nonpayable",
      "type": "function"
    },
    {
      "inputs": [
        {
          "internalType": "uint256",
          "name": "time",
          "type": "uint256"
        }
      ],
      "name": "subscribe",
      "outputs": [
        {
          "internalType": "bool",
          "name": "",
          "type": "bool"
        }
      ],
      "stateMutability": "payable",
      "type": "function"
    },
    {
      "inputs": [
        {
          "internalType": "uint256",
          "name": "index",
          "type": "uint256"
        }
      ],
      "name": "getChapter",
      "outputs": [
        {
          "internalType": "string",
          "name": "",
          "type": "string"
        }
      ],
      "stateMutability": "view",
      "type": "function"
    }
  ],
  "bytecode": "0x60806040526000600255600060035560006005553480156200002057600080fd5b50604051620015a1380380620015a1833981810160405281019062000046919062000299565b81600090816200005791906200054a565b5080600160006101000a81548173ffffffffffffffffffffffffffffffffffffffff021916908373ffffffffffffffffffffffffffffffffffffffff160217905550505062000631565b6000604051905090565b600080fd5b600080fd5b600080fd5b600080fd5b6000601f19601f8301169050919050565b7f4e487b7100000000000000000000000000000000000000000000000000000000600052604160045260246000fd5b6200010a82620000bf565b810181811067ffffffffffffffff821117156200012c576200012b620000d0565b5b80604052505050565b600062000141620000a1565b90506200014f8282620000ff565b919050565b600067ffffffffffffffff821115620001725762000171620000d0565b5b6200017d82620000bf565b9050602081019050919050565b60005b83811015620001aa5780820151818401526020810190506200018d565b60008484015250505050565b6000620001cd620001c78462000154565b62000135565b905082815260208101848484011115620001ec57620001eb620000ba565b5b620001f98482856200018a565b509392505050565b600082601f830112620002195762000218620000b5565b5b81516200022b848260208601620001b6565b91505092915050565b600073ffffffffffffffffffffffffffffffffffffffff82169050919050565b6000620002618262000234565b9050919050565b620002738162000254565b81146200027f57600080fd5b50565b600081519050620002938162000268565b92915050565b60008060408385031215620002b357620002b2620000ab565b5b600083015167ffffffffffffffff811115620002d457620002d3620000b0565b5b620002e28582860162000201565b9250506020620002f58582860162000282565b9150509250929050565b600081519050919050565b7f4e487b7100000000000000000000000000000000000000000000000000000000600052602260045260246000fd5b600060028204905060018216806200035257607f821691505b6020821081036200036857620003676200030a565b5b50919050565b60008190508160005260206000209050919050565b60006020601f8301049050919050565b600082821b905092915050565b600060088302620003d27fffffffffffffffffffffffffffffffffffffffffffffffffffffffffffffffff8262000393565b620003de868362000393565b95508019841693508086168417925050509392505050565b6000819050919050565b6000819050919050565b60006200042b620004256200041f84620003f6565b62000400565b620003f6565b9050919050565b6000819050919050565b62000447836200040a565b6200045f620004568262000432565b848454620003a0565b825550505050565b600090565b6200047662000467565b620004838184846200043c565b505050565b5b81811015620004ab576200049f6000826200046c565b60018101905062000489565b5050565b601f821115620004fa57620004c4816200036e565b620004cf8462000383565b81016020851015620004df578190505b620004f7620004ee8562000383565b83018262000488565b50505b505050565b600082821c905092915050565b60006200051f60001984600802620004ff565b1980831691505092915050565b60006200053a83836200050c565b9150826002028217905092915050565b6200055582620002ff565b67ffffffffffffffff811115620005715762000570620000d0565b5b6200057d825462000339565b6200058a828285620004af565b600060209050601f831160018114620005c25760008415620005ad578287015190505b620005b985826200052c565b86555062000629565b601f198416620005d2866200036e565b60005b82811015620005fc57848901518255600182019150602085019450602081019050620005d5565b868310156200061c578489015162000618601f8916826200050c565b8355505b6001600288020188555050505b505050505050565b610f6080620006416000396000f3fe6080604052600436106100555760003560e01c80630f574ba71461005a57806319e5ba371461008a57806369fe0e2d146100b557806399f7b567146100f2578063b7f7bcd91461012f578063ec487f9e1461016c575b600080fd5b610074600480360381019061006f91906108b6565b6101a9565b60405161008191906108fe565b60405180910390f35b34801561009657600080fd5b5061009f610464565b6040516100ac91906109a9565b60405180910390f35b3480156100c157600080fd5b506100dc60048036038101906100d791906108b6565b6104f2565b6040516100e991906108fe565b60405180910390f35b3480156100fe57600080fd5b50610119600480360381019061011491906108b6565b61055e565b60405161012691906109a9565b60405180910390f35b34801561013b57600080fd5b5061015660048036038101906101519190610b00565b610756565b6040516101639190610b58565b60405180910390f35b34801561017857600080fd5b50610193600480360381019061018e91906108b6565b610800565b6040516101a091906108fe565b60405180910390f35b60004260078190555042600460003373ffffffffffffffffffffffffffffffffffffffff1673ffffffffffffffffffffffffffffffffffffffff16815260200190815260200160002054101561030957816003546102079190610ba2565b341461021257600080fd5b600160009054906101000a900473ffffffffffffffffffffffffffffffffffffffff1673ffffffffffffffffffffffffffffffffffffffff166108fc349081150290604051600060405180830381858888f1935050505015801561027a573d6000803e3d6000fd5b50603c806018601e8561028d9190610ba2565b6102979190610ba2565b6102a19190610ba2565b6102ab9190610ba2565b6007546102b89190610be4565b600781905550600754600460003373ffffffffffffffffffffffffffffffffffffffff1673ffffffffffffffffffffffffffffffffffffffff1681526020019081526020016000208190555061045b565b816003546103179190610ba2565b341461032257600080fd5b600160009054906101000a900473ffffffffffffffffffffffffffffffffffffffff1673ffffffffffffffffffffffffffffffffffffffff166108fc349081150290604051600060405180830381858888f1935050505015801561038a573d6000803e3d6000fd5b50600460003373ffffffffffffffffffffffffffffffffffffffff1673ffffffffffffffffffffffffffffffffffffffff16815260200190815260200160002054600781905550603c806018601e856103e39190610ba2565b6103ed9190610ba2565b6103f79190610ba2565b6104019190610ba2565b60075461040e9190610be4565b600781905550600754600460003373ffffffffffffffffffffffffffffffffffffffff1673ffffffffffffffffffffffffffffffffffffffff168152602001908152602001600020819055505b60019050919050565b6000805461047190610c47565b80601f016020809104026020016040519081016040528092919081815260200182805461049d90610c47565b80156104ea5780601f106104bf576101008083540402835291602001916104ea565b820191906000526020600020905b8154815290600101906020018083116104cd57829003601f168201915b505050505081565b6000600160009054906101000a900473ffffffffffffffffffffffffffffffffffffffff1673ffffffffffffffffffffffffffffffffffffffff163373ffffffffffffffffffffffffffffffffffffffff161461054e57600080fd5b8160038190555060019050919050565b6060600160009054906101000a900473ffffffffffffffffffffffffffffffffffffffff1673ffffffffffffffffffffffffffffffffffffffff163373ffffffffffffffffffffffffffffffffffffffff1603610658576006600083815260200190815260200160002080546105d390610c47565b80601f01602080910402602001604051908101604052809291908181526020018280546105ff90610c47565b801561064c5780601f106106215761010080835404028352916020019161064c565b820191906000526020600020905b81548152906001019060200180831161062f57829003601f168201915b50505050509050610751565b60055482111561066757600080fd5b42600460003373ffffffffffffffffffffffffffffffffffffffff1673ffffffffffffffffffffffffffffffffffffffff16815260200190815260200160002054116106b257600080fd5b6006600083815260200190815260200160002080546106d090610c47565b80601f01602080910402602001604051908101604052809291908181526020018280546106fc90610c47565b80156107495780601f1061071e57610100808354040283529160200191610749565b820191906000526020600020905b81548152906001019060200180831161072c57829003601f168201915b505050505090505b919050565b6000600160009054906101000a900473ffffffffffffffffffffffffffffffffffffffff1673ffffffffffffffffffffffffffffffffffffffff163373ffffffffffffffffffffffffffffffffffffffff16146107b257600080fd5b8160066000600554815260200190815260200160002090816107d49190610e24565b5060016005546107e49190610be4565b60058190555060016005546107f99190610ef6565b9050919050565b6000600160009054906101000a900473ffffffffffffffffffffffffffffffffffffffff1673ffffffffffffffffffffffffffffffffffffffff163373ffffffffffffffffffffffffffffffffffffffff161461085c57600080fd5b8160028190555060019050919050565b6000604051905090565b600080fd5b600080fd5b6000819050919050565b61089381610880565b811461089e57600080fd5b50565b6000813590506108b08161088a565b92915050565b6000602082840312156108cc576108cb610876565b5b60006108da848285016108a1565b91505092915050565b60008115159050919050565b6108f8816108e3565b82525050565b600060208201905061091360008301846108ef565b92915050565b600081519050919050565b600082825260208201905092915050565b60005b83811015610953578082015181840152602081019050610938565b60008484015250505050565b6000601f19601f8301169050919050565b600061097b82610919565b6109858185610924565b9350610995818560208601610935565b61099e8161095f565b840191505092915050565b600060208201905081810360008301526109c38184610970565b905092915050565b600080fd5b600080fd5b7f4e487b7100000000000000000000000000000000000000000000000000000000600052604160045260246000fd5b610a0d8261095f565b810181811067ffffffffffffffff82111715610a2c57610a2b6109d5565b5b80604052505050565b6000610a3f61086c565b9050610a4b8282610a04565b919050565b600067ffffffffffffffff821115610a6b57610a6a6109d5565b5b610a748261095f565b9050602081019050919050565b82818337600083830152505050565b6000610aa3610a9e84610a50565b610a35565b905082815260208101848484011115610abf57610abe6109d0565b5b610aca848285610a81565b509392505050565b600082601f830112610ae757610ae66109cb565b5b8135610af7848260208601610a90565b91505092915050565b600060208284031215610b1657610b15610876565b5b600082013567ffffffffffffffff811115610b3457610b3361087b565b5b610b4084828501610ad2565b91505092915050565b610b5281610880565b82525050565b6000602082019050610b6d6000830184610b49565b92915050565b7f4e487b7100000000000000000000000000000000000000000000000000000000600052601160045260246000fd5b6000610bad82610880565b9150610bb883610880565b9250828202610bc681610880565b91508282048414831517610bdd57610bdc610b73565b5b5092915050565b6000610bef82610880565b9150610bfa83610880565b9250828201905080821115610c1257610c11610b73565b5b92915050565b7f4e487b7100000000000000000000000000000000000000000000000000000000600052602260045260246000fd5b60006002820490506001821680610c5f57607f821691505b602082108103610c7257610c71610c18565b5b50919050565b60008190508160005260206000209050919050565b60006020601f8301049050919050565b600082821b905092915050565b600060088302610cda7fffffffffffffffffffffffffffffffffffffffffffffffffffffffffffffffff82610c9d565b610ce48683610c9d565b95508019841693508086168417925050509392505050565b6000819050919050565b6000610d21610d1c610d1784610880565b610cfc565b610880565b9050919050565b6000819050919050565b610d3b83610d06565b610d4f610d4782610d28565b848454610caa565b825550505050565b600090565b610d64610d57565b610d6f818484610d32565b505050565b5b81811015610d9357610d88600082610d5c565b600181019050610d75565b5050565b601f821115610dd857610da981610c78565b610db284610c8d565b81016020851015610dc1578190505b610dd5610dcd85610c8d565b830182610d74565b50505b505050565b600082821c905092915050565b6000610dfb60001984600802610ddd565b1980831691505092915050565b6000610e148383610dea565b9150826002028217905092915050565b610e2d82610919565b67ffffffffffffffff811115610e4657610e456109d5565b5b610e508254610c47565b610e5b828285610d97565b600060209050601f831160018114610e8e5760008415610e7c578287015190505b610e868582610e08565b865550610eee565b601f198416610e9c86610c78565b60005b82811015610ec457848901518255600182019150602085019450602081019050610e9f565b86831015610ee15784890151610edd601f891682610dea565b8355505b6001600288020188555050505b505050505050565b6000610f0182610880565b9150610f0c83610880565b9250828203905081811115610f2457610f23610b73565b5b9291505056fea2646970667358221220b8b3ff196c4d92f81f08ecce36ed176c72a7c4b03bb0b951e41e3d107e5bc34664736f6c63430008130033",
  "immutableReferences": {},
  "source": "// SPDX-License-Identifier: MIT\r\npragma solidity ^0.8.0;\r\n\r\ncontract novelFactory {\r\n    address[] public novelCollection;\r\n    address public admin;\r\n\r\n    constructor() {\r\n        admin = msg.sender;\r\n    }\r\n\r\n    function createNovel(string memory novelName) public {\r\n        Novel newNovel = new Novel(novelName, msg.sender);\r\n        novelCollection.push(address(newNovel));\r\n    }\r\n\r\n    function getNovels(uint256 index) public view returns (address) {\r\n        return novelCollection[index];\r\n    }\r\n\r\n    function totalNovels() public view returns (uint256) {\r\n        return novelCollection.length;\r\n    }\r\n}\r\n\r\ncontract Novel {\r\n    string public novelName;\r\n    address payable writer;\r\n    uint256 internal freeChapters = 0;\r\n    uint256 internal subscriptionFee = 0;\r\n    mapping(address => uint256) internal subscription;\r\n    uint256 internal chapterCount = 0;\r\n    mapping(uint256 => string) internal chapters;\r\n    uint256 internal date;\r\n\r\n    constructor(string memory _novelName, address _writer) {\r\n        novelName = _novelName;\r\n        writer = payable(_writer);\r\n    }\r\n\r\n    function uploadNewChapter(string memory CID) public returns (uint256) {\r\n        require(msg.sender == writer);\r\n\r\n        chapters[chapterCount] = CID;\r\n        chapterCount = chapterCount + 1;\r\n        return chapterCount - 1;\r\n    }\r\n\r\n    function setFreeChapter(uint256 count) public returns (bool) {\r\n        require(msg.sender == writer);\r\n        freeChapters = count;\r\n        return true;\r\n    }\r\n\r\n    function setFee(uint256 fee) public returns (bool) {\r\n        require(msg.sender == writer);\r\n        subscriptionFee = fee;\r\n        return true;\r\n    }\r\n\r\n    function subscribe(uint256 time) public payable returns (bool) {\r\n        date = block.timestamp;\r\n        if (subscription[msg.sender] < block.timestamp) {\r\n            require(msg.value == subscriptionFee * time);\r\n            writer.transfer(msg.value);\r\n            date = date + (time * 30 * 24 * 60 * 60);\r\n            subscription[msg.sender] = date;\r\n        } else {\r\n            require(msg.value == subscriptionFee * time);\r\n            writer.transfer(msg.value);\r\n            date = subscription[msg.sender];\r\n            date = date + (time * 30 * 24 * 60 * 60);\r\n            subscription[msg.sender] = date;\r\n        }\r\n        return true;\r\n    }\r\n\r\n    function getChapter(uint256 index) public view returns (string memory) {\r\n        if (msg.sender == writer) {\r\n            return chapters[index];\r\n        }\r\n        require(index <= chapterCount); //\r\n        require(subscription[msg.sender] > block.timestamp);\r\n        return chapters[index];\r\n    }\r\n}\r\n",
  "sourcePath": "F:\\Web3 Research\\Implementation\\Web3-Web-Novel-Research-Project\\truffle\\contracts\\novel.sol",
  "compiler": {
    "name": "solc",
    "version": "0.8.19+commit.7dd6d404.Emscripten.clang"
  },
  "schemaVersion": "3.4.13",
  "updatedAt": "2023-04-04T18:08:38.820Z",
  "devdoc": {
    "kind": "dev",
    "methods": {},
    "version": 1
  },
  "userdoc": {
    "kind": "user",
    "methods": {},
    "version": 1
  }
}